:1000000009C00EC00DC00CC00BC00AC009C008C09A
:1000100007C006C011241FBECFE9CDBF52D08CC08F
:10002000EFCF000000000000000000000000000012
:1000300000000000000000000000000000000000C0
:1000400000000000000000000000000000000000B0
:1000500000000000000000000000000000000000A0
:100060000000000000000000000000000000000090
:100070000000000000000000000000000000000080
:100080000000000000000000000000000000000070
:100090000000000000000000000000000000000060
:1000A0000000000000000000000000000000000050
:1000B00000000000000000000895479846981E9830
:1000C000089580E886BD16BC80E187BBF6DFC49842
:1000D000A8DF459B02C0C49A01C0C498A2DF459B1B
:1000E00002C0C49A01C0C4989CDF459B02C0C49A58
:1000F00001C0C49896DF459B02C0C49A01C0C49851
:1001000090DF459B02C0C49A01C0C4988ADF459B1A
:1001100002C0C49A01C0C49884DF459B02C0C49A3F
:1001200001C0C4987EDF459B02C0C49A01C0C49838
:0C01300078DFC49A76DFCBCFF894FFCFC5
:00000001FF
